:100000000C9466000C9485000C9485000C9485007B
:100010000C9485000C9485000C9485000C9485004C
:100020000C9485000C9485000C9485000C9485003C
:100030000C9485000C9485000C9485000C9485002C
:100040000C9485000C94F4040C94FE040C9485002C
:100050000C9485000C9485000C9485000C9485000C
:100060000C9485000C9485000C9485000C948500FC
:100070000C9485000C9482050C9485000C948500EA
:100080000C9485000C9485000C9485000C948500DC
:100090000C9490010C9421010C9485000C94850023
:1000A0000C9485000C9485000C9485000C948500BC
:1000B0000C9485000C9485000C9485000C948500AC
:1000C0000C9485000C9485000C94850011241FBEAF
:1000D000CFEFD1E2DEBFCDBF14E0A0E0B2E0E2EAB4
:1000E000FDE000E00BBF02C007900D92A23DB107FA
:1000F000D9F715E1A2EDB4E001C01D92AF37B10709
:10010000E1F70E9487000C94CF060C9400000F9337
:100110001F93F89480E8809361001092610086E656
:100120009EE00197F1F73A9A0E9408050E94860323
:1001300083E090E00E94C70180E092E00E94840189
:1001400083B7817F83BF789480E0813019F082305B
:10015000E1F404C00E9472058823E1F70E94BF0207
:100160008E54914080F080917E15882319F40E946E
:10017000EA0202C00E9451038C01C8010E9466017C
:100180008823D9F7EBCF0E94BA020E94EB018823A3
:10019000E1F683B7816083BF889583B78E7F83BF85
:1001A000F4CF2091660530916705C90108950F933A
:1001B0001F93DF93CF930F92CDB7DEB78E010F5F02
:1001C0001F4F8CE195E0B8010E9440048823C9F7D5
:1001D00089810F90CF91DF911F910F910895EF9238
:1001E000FF920F931F93CF93DF937C018B0180913C
:1001F000660590916705892B11F481E01BC0C0E072
:10020000D0E014C00E94D700F701EC0FFD1F8083DF
:100210008A3059F4118280916605909167050197A3
:10022000909367058093660504C02196C017D10797
:1002300048F380E0DF91CF911F910F91FF90EF90F5
:1002400008951F920F920FB60F920BB60F921124C2
:100250002F933F934F935F936F937F938F939F93CE
:10026000AF93BF93EF93FF93DF93CF930F92CDB7ED
:10027000DEB782ED94E0BE016F5F7F4F0E944004C5
:10028000882321F489818093CE0005C08091C90024
:100290008F7D8093C9000F90CF91DF91FF91EF91F7
:1002A000BF91AF919F918F917F916F915F914F918E
:1002B0003F912F910F900BBE0F900FBE0F901F908C
:1002C00018958CE195E00E94EC040895BC0182ED44
:1002D00094E00E94E003982F882329F48091C900BC
:1002E00080628093C900892F0895682F82ED94E081
:1002F0000E94A903982F882329F48091C900806265
:100300008093C900892F0895CF93DF93EC0102C039
:100310000E94750189918823D9F7DF91CF910895C3
:100320001F920F920FB60F920BB60F9211242F93BC
:100330003F934F935F936F937F938F939F93AF936D
:10034000BF93EF93FF936091CE006A3049F48091A0
:100350006605909167050196909367058093660501
:100360008CE195E00E94A903FF91EF91BF91AF91BD
:100370009F918F917F916F915F914F913F912F91BD
:100380000F900BBE0F900FBE0F901F9018950F93FC
:100390001F938C01109267051092660582ED94E020
:1003A0006CED74E040E450E00E948F038CE195E036
:1003B00066E275E040E450E00E948F0388E9809394
:1003C000C90086E08093CA001093CD000093CC0052
:1003D0001F910F9108959F92AF92BF92CF92DF929B
:1003E000EF92FF920F931F93DF93CF93CDB7DEB7BA
:1003F000A1970FB6F894DEBF0FBECDBF8E010F5F81
:100400001F4FC80160E270E00E94EF00882309F0EE
:100410009EC08EE092E0B80143E050E00E947D066D
:10042000009709F087C0C80162E172E00E94780677
:1004300080E090E062E172E00E947806009719F493
:10044000AA24BB2403C00E9433065C0180E090E034
:1004500062E172E00E947806009721F4EE24FF2406
:10046000870107C00E945106AC01CB01DA017C0173
:100470008D0180E090E062E172E00E9478060097D2
:1004800011F4992403C00E943306982E80E090E076
:1004900062E172E00E947806009719F4CC24DD2412
:1004A00003C00E9433066C0180E090E062E172E0DC
:1004B0000E947806009721F00E94330680937E15F3
:1004C000A114B10469F1E114F1040105110541F130
:1004D00080917E15813099F4B801A70182E0440F24
:1004E000551F661F771F8A95D1F74E0D5F1D601F40
:1004F000711F435B5E4F6F4F7F4FC5010BC08DE493
:1005000091E0A0E0B0E0E80EF91E0A1F1B1FC50134
:10051000B801A701292D86010E94230581E018C09A
:1005200084E192E00E94840187E20E947501CE017D
:10053000019608C087E292E00E94840187E20E944F
:100540007501C8010E94840187E20E94750180E064
:10055000A1960FB6F894DEBF0FBECDBFCF91DF914D
:100560001F910F91FF90EF90DF90CF90BF90AF90D1
:100570009F90089588E695E00E949E03089588E67E
:1005800095E00E94EC049C0136952795C9010895D9
:10059000BC0188E695E00E94E00308950F931F9345
:1005A000DF93CF9300D0CDB7DEB710927E158E01CA
:1005B0000F5F1F4F88E695E0B8010E9478048823FA
:1005C000C9F789819A810F900F90CF91DF911F9188
:1005D0000F910895AF92BF92CF92DF92EF92FF9268
:1005E0000F931F93DF93CF9300D0CDB7DEB747E3D0
:1005F000E42E42E0F42E00E010E0CC24DD245E0185
:100600000894A11CB11CB80160957095635B7E4F86
:1006100088E695E0A5010E94B5048823E9F4698184
:100620007A8136E0660F771F3A95E1F77A8369831E
:10063000882777FD8095982FF70120813181442705
:1006400037FD4095542F0E941406BC01992777FD71
:100650009095892FC60ED71E0F5F1F4F82E090E046
:10066000E80EF91E91E00D34190769F688E695E069
:10067000BE016F5F7F4F0E947804960195E035952B
:1006800027959A95E1F7C9010F900F90CF91DF91CF
:100690001F910F91FF90EF90DF90CF90BF90AF90A0
:1006A0000895CF92DF92EF92FF920F931F93DF9303
:1006B000CF9300D0CDB7DEB7429A0E94EA02D82E7F
:1006C000C92E58E6E52E55E0F52EC7018E010F5FC5
:1006D0001F4FB8010E947804C701B8010E94780436
:1006E000C701B8010E947804C701B8010E947804CC
:1006F00042988D2D9C2D0F900F90CF91DF911F91DF
:100700000F91FF90EF90DF90CF90089588E695E0ED
:1007100062E775E040E050E10E948F030895FC011C
:100720008FB7F894718360831382128215821482CA
:1007300017821682518740878FBF0895FC018FB7BB
:10074000F8941382128215821482178216828FBF48
:100750000895DC014FB7F89416962D913C911797A8
:1007600018968D919C9119972817390710F081E000
:1007700025C0ED91FC91119714968D919C91159740
:10078000E80FF91F608314962D913C9115971896E8
:100790008D919C91199701972F5F3F4F822393234F
:1007A00015969C938E93149716968D919C911797FE
:1007B000019617969C938E93169780E04FBF0895ED
:1007C000DF93CF9300D0CDB7DEB7DC017A836983A6
:1007D0004FB7F89416962D913C91179718968D91D6
:1007E0009C91199701972817390710F081E042C0B2
:1007F000ED91FC91119714968D919C911597E80FAE
:10080000F91F8981808314962D913C911597189634
:100810008D919C91199701972F5F3F4F82239323CE
:1008200015969C938E931497ED91FC9111971496C5
:100830008D919C911597E80FF91F8A8180831496FA
:100840002D913C91159718968D919C911997019730
:100850002F5F3F4F8223932315969C938E9314977B
:1008600016968D919C911797029617969C938E934E
:10087000169780E04FBF0F900F90CF91DF910895B2
:10088000CF93DF93DC01EB014FB7F89416968D916F
:100890009C911797892B11F481E026C0ED91FC9172
:1008A000119712968D919C911397E80FF91F8081F3
:1008B000888312962D913C91139718968D919C9157
:1008C000199701972F5F3F4F8223932313969C9391
:1008D0008E93129716968D919C9117970197179664
:1008E0009C938E93169780E04FBFDF91CF91089530
:1008F000CF93DF93EC014FB7F8948E819F810297DD
:1009000010F481E02EC0DB01E881F9818A819B81AE
:10091000E80FF91F80818C932A813B818885998516
:1009200001972F5F3F4F822393239B838A83E88124
:10093000F9818A819B81E80FF91F808111968C9340
:100940002A813B818885998501972F5F3F4F8223BC
:1009500093239B838A838E819F8102979F838E83BB
:1009600080E04FBFDF91CF9108951F93CF93DF9326
:10097000EC011FB7F8948E819F81660F771F861751
:10098000970710F481E023C0DA01E881F9812A8118
:100990003B8188859985260F371F019728233923A6
:1009A000E20FF31F80818C93E881F9818A819B811A
:1009B000288539850196860F971F21503040822364
:1009C0009323E80FF91F808111968C9380E01FBF5D
:1009D000DF91CF911F910895FC018FB7F894268184
:1009E00037818FBFC90108951F920F920FB60F92E2
:1009F00011240F900FBE0F901F9018951F920F9209
:100A00000FB60F9211240F900FBE0F901F901895E4
:100A1000109272151092731510927415109275152C
:100A200080EC80937C00EAE7F0E085E2808385E05B
:100A300080937B0081E080937E008081806880834A
:100A40001092810008950F931F93FC01F894409336
:100A500072155093731560937415709375152093E8
:100A6000761510937915009378158091761581305D
:100A700019F0823081F405C0809377158FEF9FE7DE
:100A800005C081E08093771580E090E890937B1516
:100A900080937A1506C01092771510927B151092EC
:100AA0007A15F0938900E0938800F695E795F6951E
:100AB000E795F0938B00E0938A00109285001092E6
:100AC000840086E080936F001092800089E080931C
:100AD000810080917A00886080937A0078941F91D9
:100AE0000F9108958091721590917315A0917415CE
:100AF000B091751520E00097A105B10509F021E03E
:100B0000822F08951F920F920FB60F920BB60F927D
:100B100011242F933F934F935F936F937F938F9302
:100B20009F93AF93BF93CF93DF93EF93FF93C091C6
:100B30007800D0917900C050D240809177158130F3
:100B400089F580917615813019F0823041F515C014
:100B50008091781590917915C817D9070CF44BC07E
:100B600020917A1530917B158091781590917915A7
:100B7000281739070CF03FC012C08091781590916A
:100B800079158C179D07BCF120917A1530917B1552
:100B900080917815909179158217930764F51092DA
:100BA000771529C0CE010E94C802809172159091DC
:100BB0007315A0917415B09175150197A109B1092C
:100BC0008093721590937315A0937415B093751557
:100BD0008091721590917315A0917415B09175154F
:100BE0000097A105B10539F41092810080917A0037
:100BF000877F80937A00D0937B15C0937A15FF91FD
:100C0000EF91DF91CF91BF91AF919F918F917F91A4
:100C10006F915F914F913F912F910F900BBE0F906D
:100C20000FBE0F901F901895629FD001739FF00127
:100C3000829FE00DF11D649FE00DF11D929FF00D6C
:100C4000839FF00D749FF00D659FF00D9927729FA3
:100C5000B00DE11DF91F639FB00DE11DF91FBD012E
:100C6000CF0111240895FC0188279927E894219148
:100C70002032E9F3293010F02E30C8F32B3241F046
:100C80002D3239F4689404C00E94C706820F911D6A
:100C9000219120532A30C0F31EF4909581959F4FE7
:100CA00008951F93FC0199278827BC01E8941191AE
:100CB0001032E9F3193010F01E30C8F31B3251F036
:100CC0001D3249F4689406C00E94B206610F711D7E
:100CD000811D911D119110531A30B0F33EF490957F
:100CE0008095709561957F4F8F4F9F4F1F9108950D
:100CF0004CE755E10E948B060895FB01DC01415051
:100D0000504030F08D910190801919F40020B9F70E
:100D1000881B990B0895FA01A191B081009719F4ED
:100D20001097E1F0CD01DC01CD010D90002011F410
:100D3000C00113C0FB012191222319F02015D9F71E
:100D4000F3CFFB012191201519F41E92119606C0D4
:100D50002223C1F70D900020A1F7D001FA01A19341
:100D6000B0830895592F482F372F262F660F771FEE
:100D7000881F991F660F771F881F991F620F731FA7
:100D8000841F951F660F771F881F991F08957AE0AB
:100D9000979F902D879F802D910D11240895F89491
:020DA000FFCF83
:100DA20048656C6C6F20576F726C64210A00414E6B
:100DB20041002000696E76616C6964207061726125
:100DC2006D657465727300756E6B6E6F776E2063FE
:100DD2006F6D6D616E640010FFFFFE1AFF60FFC64B
:100DE200FF3C00AD00060136013201F6008B000027
:100DF200006BFFE7FE8BFE6AFE91FEFCFEA0FF6425
:100E0200002901CB012B023002CF010E010000CCE0
:100E1200FEA2FDB8FC41FC6AFC4CFDECFE3B010F5E
:100E2200042C074C0A210D630FD8105911D81063F6
:100E32000F210D4C0A2C070F043B01ECFE4CFD6AFE
:100E4200FC41FCB8FCA2FDCCFE00000E01CF01303B
:100E5200022B02CB0129016400A0FFFCFE91FE6A75
:100E6200FE8BFEE7FE6BFF00008B00F600320136C0
:100E7200010601AD003C00C6FF60FF1AFFFFFE1035
:100E8200FF00000000000000000000000000000061
:100E92000000000000000000000000000000000050
:100EA2000000000000000000000000000000000040
:100EB2000000000000000000000000000000000030
:100EC2000000000000000000000000000000000020
:100ED2000000000000000000000000000000000010
:100EE2000000000000000000000000000000000000
:100EF20000000000000000000000000000000000F0
:100F020000000000000000000000000000000000DF
:100F120000000000000000000000000000000000CF
:100F220000000000000000000000000000000000BF
:100F320000000000000000000000000000000000AF
:100F4200000000000000000000000000000000009F
:100F5200000000000000000000000000000000008F
:100F6200000000000000000000000000000000007F
:100F7200000000000000000000000000000000006F
:100F8200000000000000000000000000000000005F
:100F9200000000000000000000000000000000004F
:100FA200000000000000000000000000000000003F
:100FB200000000000000000000000000000000002F
:100FC200000000000000000000000000000000001F
:100FD200000000000000000000000000000000000F
:100FE20000000000000000000000000000000000FF
:100FF20000000000000000000000000000000000EF
:1010020000000000000000000000000000000000DE
:1010120000000000000000000000000000000000CE
:1010220000000000000000000000000000000000BE
:1010320000000000000000000000000000000000AE
:10104200000000000000000000000000000000009E
:10105200000000000000000000000000000000008E
:10106200000000000000000000000000000000007E
:0210720000007C
:00000001FF
